:020000040800F2
:10000000200D002001010008511B000861110008AB
:10001000051B00084901000899270008000000009E
:10002000000000000000000000000000392200086D
:10003000590C000800000000051C00080D230008F2
:100040001B0100081B0100081B0100081B01000820
:100050001B0100081B0100081B0100081B01000810
:100060001B0100081B0100081B0100081B01000800
:100070001B0100081B0100081B0100081B010008F0
:100080001B0100081B0100081B010008ED260008E9
:10009000092700081B0100081B010008770C000855
:1000A0001B0100081B0100081B0100081B010008C0
:1000B000ED230008CD240008652500081B01000879
:1000C0001B0100081B0100081B010008ED1F0008B0
:1000D0001B0100081B0100081B0100081B01000890
:1000E0001B0100081B0100081B010008DFF80CD0F1
:1000F00000F018F800480047BD270008200D002038
:100100000648804706480047FEE7FEE7FEE7FEE7B1
:10011000FEE7FEE7FEE7FEE7FEE7FEE71123000845
:10012000ED000008064C074D06E0E06840F00103D2
:1001300094E8070098471034AC42F6D3FFF7DAFF93
:10014000A4280008C428000800BFFEE7F0B585B069
:1001500007460E46144600BF0421174800F0F6FF7C
:100160001021164800F0F2FF00BF082C01DD082026
:1001700000E0204604460020009000F097FA27F0A7
:10018000FF010843019000208DF8090004208DF83C
:1001900008008DF80A40002506E016F8011B0DF155
:1001A0000B004155681CC5B2A542F6DB6946044800
:1001B00000F01EFB05B0F0BD00080140000C01403E
:1001C00000640040B1F5007F3AD00FDC202928D030
:1001D00006DC01291CD004291DD0082940D11DE0CE
:1001E000402921D0B1F5807F3AD126E0B1F5004F0A
:1001F00031D006DCB1F5806F25D0B1F5006F2FD17D
:1002000024E0B1F5803F12D0B1F5003F28D111E0D4
:10021000154A826025E00822C26022E01022C260F6
:100220001FE0082202611CE01022026119E008228E
:10023000426016E01022426013E00422426010E0A7
:10024000042242600DE0042242600AE00022826142
:100250000422426005E0002282610422426000E044
:1002600000BF00BF704700000101010010B5044647
:100270000B48844209D10121480601F0F1FC00211C
:100280004FF0007001F0ECFC08E00121880601F05D
:10029000E7FC00214FF0806001F0E2FC10BD00009F
:1002A0000064004010B50021837A012202FA03F1B4
:1002B0003D4A126842F001023B4B1A603A4A1C3236
:1002C00012688A43384B1C331A60027BCAB9364A1B
:1002D0000C3212688A43344B0C331A604288C3884C
:1002E00042EA0343304A4032847A42F8343002888A
:1002F000838842EA03432C4A4032847A02EBC402E8
:100300005360027B012A19D1274A0C3212680A4332
:10031000254B0C331A604288038842EA0343224A81
:100320004032847A42F83430C288838842EA0343F8
:100330001D4A4032847A02EBC4025360C27A3AB951
:10034000194A121D12688A43174B1B1D1A6006E0DA
:10035000154A121D12680A43134B1B1D1A600289AD
:1003600032B9114A143212688A430F4B14331A609F
:100370000289012A06D10C4A143212680A430A4B38
:1003800014331A60427B012A06D1074A1C321268D4
:100390000A43054B1C331A60034A126822F001021B
:1003A000014B1A6010BD00000066004070B50446A5
:1003B0000D4600266069284271D0B5F5807F5CD07B
:1003C00010DC082D35D006DC012D20D0022D24D0E4
:1003D000042D72D127E0102D31D0202D35D0402DA5
:1003E0006BD138E0B5F5004F60D009DCB5F5007F82
:1003F00049D0B5F5806F4CD0B5F5006F5DD14FE0B9
:10040000B5F5803F2DD0B5F5003F56D12FE0A0685F
:100410002D4900F0EFFB064651E0E068032100F0B3
:10042000E9FB06464BE0E068082100F0E3FB0646E6
:1004300045E0E068102100F0DDFB06463FE0206962
:10044000032100F0D7FB064639E02069082100F0BF
:10045000D1FB064633E02069102100F0CBFB0646B5
:100460002DE06068082100F0C5FB064627E06068C3
:10047000102100F0BFFB064621E0A069012100F039
:10048000B9FB06461BE0A069022100F0B3FB06465B
:1004900015E0A069042100F0ADFB06460FE00FE077
:1004A000A069702100F0A6FB064608E06068042100
:1004B00000F0A0FB064602E0FFE7002600BF00E0D8
:1004C0000026304670BD0000010101001AB14369E9
:1004D0000B43436102E043698B434361704730B58E
:1004E000024600200023146824F0020414601468FB
:1004F00044F00104146000E05B1C546814F0010F28
:1005000003D1A3F57F44FF3CF6D1546814F0010FEA
:1005100001D100206CE08C79012C04D1146844F0E6
:100520008004146003E0146824F080041460CC7923
:10053000012C04D1146844F04004146003E01468F2
:1005400024F0400414600C7A012C04D1146844F0A7
:100550002004146003E0146824F0200414604C7A32
:10056000012C04D1146844F01004146003E01468F2
:1005700024F0100414608C7A012C04D1146844F027
:100580000804146003E0146824F008041460CC7AB2
:10059000012C04D1146844F00404146003E01468CE
:1005A00024F0040414608C78A407CD7844EA056430
:1005B0000D7944EA05444D7944EA05540D886D1ED1
:1005C0002C43D461146824F001041460002300E07B
:1005D0005B1C546814F0010F03D0A3F57F44FF3C6B
:1005E000F6D1546814F0010F01D0002000E0012082
:1005F00030BD000000B587B00121480601F020FBA6
:100600002948FFF733FE00208DF816008DF81700FB
:100610008DF818008DF819008DF81A008DF81B0060
:100620008DF812008DF8130007208DF814000620B5
:100630008DF815000920ADF8100004A91A48FFF73D
:100640004EFF00208DF80A008DF80B0001208DF878
:100650000C0049F28010ADF800000020ADF8020057
:100660004FF6E070ADF804000020ADF80600ADF8DC
:10067000080001208DF80D006846FFF713FE0221E7
:100680000948FFF79FFD01210748FFF79BFD012265
:1006900002210548FFF71AFF012211460248FFF721
:1006A00015FF07B000BD000000640040034800785B
:1006B00002490978491C014A117070473500002031
:1006C00008B514208DF8000007208DF801000020E7
:1006D0008DF8020001208DF80300684601F044FA0D
:1006E00013208DF8000007208DF8010000208DF800
:1006F000020001208DF80300684601F035FA08BDBC
:1007000010B500F5D87303EB01131B6803F0040365
:100710001372137A53B900F5D87303EB01131B68F6
:1007200040F2FF7404EA5353136009E000F5D873F4
:1007300003EB01131B686FF0604404EAD3035360BA
:1007400000F5D87303EB01131B6803F00203537227
:1007500000F5D87303EB01135B6803F00F0393728A
:1007600000F5D87303EB01135B681B0AD37400F523
:10077000D87303EB01139B68D37200F5D87303EBB6
:1007800001139B681C0A147300F5D87303EB011363
:100790009B681C0C547300F5D87303EB01139B6822
:1007A0001B0E937300F5D87303EB0113DB68D3734F
:1007B00000F5D87303EB0113DB681C0A147400F511
:1007C000D87303EB0113DB681C0C547400F5D87369
:1007D00003EB0113DB681B0E937421B9C36843F06C
:1007E0002003C36003E0036943F02003036110BDED
:1007F00010B502460020936803F08063B3F1806F68
:1008000000D110E0936803F00063B3F1006F01D1F1
:10081000012008E0936803F08053B3F1805F01D1B9
:10082000022000E00420042874D002F5C07303EB1A
:1008300000131B6803F0010402F5C07303EB0013FF
:100840001C600B7A7BB94B7A0C8843EA445302F55F
:10085000C07404EB00142468234302F5C07404EB55
:100860000014236010E00B7A4C6843EAC4034C7A0E
:10087000234302F5C07404EB00142468234302F5FB
:10088000C07404EB001423608B7A03F00F038B72A7
:1008900002F5C07303EB00135B6823F00F0402F54D
:1008A000C07303EB00135C6002F5C07303EB00132D
:1008B0005B688C7A234302F5C07404EB0014636018
:1008C0008B7B1C064B7B44EA03440B7B44EA0323EB
:1008D000CC7A234302F5C07404EB0014A3608B7C34
:1008E0001C064B7C44EA03440B7C44EA0323CC7B88
:1008F000234302F5C07404EB0014E36002F5C073F7
:1009000003EB00131B6843F0010402F5C07303EB13
:1009100000131C6010BD000070B54548007DC0B1DB
:1009200000204349087543480078401CC0B2414943
:10093000087000F07F000870097841F4BA414FF068
:10094000D35242EAC101081D394A1532082100F08C
:1009500001FA39480078012869D137484068850C88
:1009600035488088C0F30724352C02D0492C5AD151
:1009700039E06805C008C4F3090140EA01202F49A5
:1009800048602D48007A0872294800794872284842
:100990008088010A2948817225484068010C27484F
:1009A000C17223484068010E24480173204890F822
:1009B0004400C1B2214841731D48B0F84400010A07
:1009C0001E4881731A48406C010C1C48C1731848BA
:1009D000406C010E1948017401460A7A48680931D1
:1009E000FFF7B4FB1FE06805C008C4F3090140EA43
:1009F0000120124948601048007A0872AA20487203
:100A00000F48C078887200210C48C172017341738D
:100A10008173C1735521017401460A7A486809310E
:100A2000FFF794FB00BF00BF00200349087070BDB2
:100A3000800800203A000020C8080020DC080020C0
:100A4000480800200178012904D0022941D0032957
:100A50003ED159E041780C2919D15D21414A5175A7
:100A6000002240498A750122CA750C220A764988FB
:100A70000A123C494A768978CAB23A498A76098884
:100A80000A123849CA760978CAB236490A774178D3
:100A90000D291AD15D21334A5175002231498A75D9
:100AA0000122CA750D220A764968090E2D4A51762F
:100AB000114649680A0C2B498A7689880A0A29490D
:100AC000CA760979CAB227490A770121254A1175E0
:100AD00046E05D21234A5175002222498A7502228F
:100AE000CA7500220A762049498B0A121D494A76A6
:100AF0001D49897ECAB21B498A760022CA760A77C6
:100B00000121184A11752BE04178102909DA817802
:100B1000C278083291408AB2437812491E3121F8D6
:100B200013205D210F4A517500220E498A75032258
:100B3000CA7542780A7642781E3131F812100A12CC
:100B400008494A7642781E3111F81210CAB2054996
:100B50008A760022CA760A770121024A117500BFFF
:100B600000BF704780080020F0080020084B588024
:100B7000B1F5006F02DBA1F5006301E001F5006350
:100B80009AB240F6FF739B1A9AB2014B1A807047D3
:100B9000800800202DE9F04105460C46B4F5006FB1
:100BA00002DBA4F5006001E004F5006087B240F6C6
:100BB000FF70C01B87B207EB05360C480178007840
:100BC000401C0A4A10700A4840F82160104600781C
:100BD000032809DB0020114608700549032000F0B6
:100BE00093FF034908394860BDE8F08134000020D4
:100BF00088080020024600200A4201D0012000E0BF
:100C00000020704721B1026842F00102026004E056
:100C100002684FF6FE731A400260704710B500225A
:100C2000026847F6F0739A430C6A8B6823430C6999
:100C300023434C6923438C692343CC6923434C6A87
:100C400023438C6A23431A430260CB6843600B68DA
:100C500083604B68C36010BD704709E04FF47A7140
:100C600000BF0A00A1F1010399B2FAD1421E90B26D
:100C70000028F3D1704710B5402000F00DF820B1E6
:100C8000402000F003F801F027FD10BD0149086085
:100C90007047000014040140014600200022074B69
:100CA0001B6803EA0102054B14331B680B4202D098
:100CB0000AB1012000E0002070470000000401405C
:100CC000002123498279002A3AD00A461268036833
:100CD0009A430B461A600A1D126803689A430B1D5B
:100CE0001A60027911440A6803681A430A60184AB4
:100CF0000832126803689A43154B08331A601A1DAC
:100D0000126803689A43124B0C331A604279102A16
:100D10000ED11A1F126803681A430D4B08331A606C
:100D20001A1D126803681A43094B0C331A600DE050
:100D30000749427911440A6803681A430A6005E0CA
:100D4000027911440A6803689A430A6070470000F8
:100D500000040140F0B585B005460E46174600BFB9
:100D60000421114800F0F2F91021104800F0EEF9CA
:100D700000BF0020009001958DF8090004208DF837
:100D8000080008208DF80A00002405E0395D0DF107
:100D90000B000155601CC4B2B442F7DB694604483D
:100DA000FFF726FD05B0F0BD00080140000C014032
:100DB000006400400549096821F01001034A1160F0
:100DC000114609680143116070470000002002408D
:100DD00001460020034A106800F038000843106004
:100DE000704700000020024010B500F0D3F910BD9C
:100DF00008B50121042000F043FF0121082000F084
:100E00003FFF684600F0A4F910208DF8030002208F
:100E10008DF802003020ADF800006946574800F018
:100E2000D1F8684600F094F910208DF803000220F4
:100E30008DF802000620ADF800006946504800F029
:100E4000C1F8684600F084F910208DF803000220F4
:100E50008DF802004FF46040ADF800006946474845
:100E600000F0B0F8684600F073F904208DF8030034
:100E70004FF4E060ADF800006946404800F0A2F889
:100E8000684600F065F904208DF803004020ADF8B5
:100E900000006946394800F095F8684600F058F9B6
:100EA0004FF48050ADF8000018208DF803000320A7
:100EB0008DF802006946324800F084F8684600F078
:100EC00047F94FF40060ADF8000048208DF80300AA
:100ED00003208DF802006946294800F073F868463F
:100EE00000F036F94FF48070ADF8000010208DF856
:100EF000030002208DF802006946214800F062F8E4
:100F0000684600F025F92020ADF800001C208DF87F
:100F1000030001208DF802006946194800F052F8DC
:100F2000684600F015F98020ADF8000018208DF813
:100F3000030001208DF802006946114800F042F8D4
:100F4000684600F005F94020ADF8000004208DF857
:100F5000030069460A4800F035F8684600F0F8F8E2
:100F600010208DF8030002208DF802001820ADF843
:100F700000006946024800F025F808BD000C014059
:100F80000008014030B500228B071C0F0F2303FA25
:100F900004F20B4B8C1053F824309343084C8D1003
:100FA00044F8253023468C1053F824308C07240F46
:100FB00000FA04F42343024C8D1044F8253030BD70
:100FC000080001402DE9F0410246002500260020DE
:100FD00000230024002791F803C00CF00F0591F8BE
:100FE00003C01CF0100F03D091F802C04CEA0505B5
:100FF00091F800C0BCF1000F31D0146800202BE044
:101000004FF0010C0CFA00F3B1F800C00CEA030633
:101010009E4220D183004FF00F0C0CFA03F7BC4323
:1010200005FA03FC4CEA040491F803C0BCF1280F54
:1010300006D14FF0010C0CFA00FCC2F814C00AE013
:1010400091F803C0BCF1480F05D14FF0010C0CFA28
:1010500000FCC2F810C0401C0828D1D31460B1F8BD
:1010600000C0BCF1FF0F34DD546800202EE000F119
:10107000080C4FF0010808FA0CF3B1F800C00CEAB4
:1010800003069E4221D183004FF00F0C0CFA03F7A8
:10109000BC4305FA03FC4CEA040491F803C0BCF11C
:1010A000280F05D100F1080C08FA0CF8C2F81480DA
:1010B00091F803C0BCF1480F07D100F1080C4FF0C4
:1010C000010808FA0CF8C2F81080401C0828CED39A
:1010D0005460BDE8F0810EB50121084600F0D0FD56
:1010E00017208DF8080001208DF8090000208DF8E8
:1010F0000A0001208DF80B0002A800F035FD062142
:101100000120FFF73FFF4020009000208DF80400F1
:101110000C208DF8050001208DF806006846FFF7C9
:10112000CFFD0EBD0246002093680B4201D0012086
:1011300000E00020704702460020D3680B4201D037
:10114000012000E000207047416170470161704755
:101150004FF6FF710180022181700421C170704738
:1011600000BFFEE710B545F2555000F027F8062005
:1011700000F018F89C2000F01BF800F00BF800F0CD
:1011800001F810BD4CF6CC400149086070470000E2
:10119000003000404AF6AA2001490860704700006C
:1011A00000300040014948607047000000300040B6
:1011B0000149886070470000003000400149086024
:1011C000704700000030004010B500244FF48071DB
:1011D0000B48FFF7A7FF08B144F002044FF4007179
:1011E0000748FFF79FFF08B144F001044FF4806106
:1011F0000348FFF797FF08B144F00404204610BDF0
:10120000000C014010B50446082C75D2DFE804F04C
:1012100004142434445464754FF400514848FFF7D3
:1012200093FF4FF480414648FFF78EFF4FF4004193
:101230004348FFF789FF80E04FF400514048FFF733
:1012400085FF4FF480413E48FFF77EFF4FF4004199
:101250003B48FFF779FF70E04FF400513848FFF743
:1012600073FF4FF480413648FFF770FF4FF40041A1
:101270003348FFF769FF60E04FF400513048FFF753
:1012800065FF4FF480412E48FFF760FF4FF40041A7
:101290002B48FFF759FF50E04FF400512848FFF763
:1012A00053FF4FF480412648FFF74EFF4FF40041B3
:1012B0002348FFF74BFF40E04FF400512048FFF771
:1012C00045FF4FF480411E48FFF73EFF4FF40041B9
:1012D0001B48FFF73BFF30E04FF400511848FFF781
:1012E00033FF4FF480411648FFF730FF4FF40041C1
:1012F0001348FFF72BFF20E00FE04FF40051104898
:10130000FFF724FF4FF480410D48FFF71FFF4FF414
:1013100000410B48FFF71AFF0FE04FF40051084857
:10132000FFF714FF4FF480410548FFF70FFF4FF41C
:1013300000410348FFF70AFF00BF00BF10BD0000D7
:10134000000C014010B50022FC4B1B7EFC4C2478A5
:10135000A34209D0F94B1B7E1BB10123F94C23702A
:1013600002E00123F84C2370F44B1B7EF44C2370F5
:101370000278F24B1B7E8BB90378012B09D0022B2C
:1013800009D0042B03D0072B07D1052205E000224A
:1013900003E0032201E0062200BF10E003784BB116
:1013A000032B09D0052B03D0062B07D1072205E01C
:1013B000042203E0012201E0022200BF00BF0A7004
:1013C00042780B78032B02D00B78022B11D1437893
:1013D000012B09D0022B09D0042B03D0072B07D1F6
:1013E000052205E0002203E0032201E0062200BFFF
:1013F00000BF0B78012B01D00B788BB9437843B138
:10140000032B08D0052B02D0062B08D105E00722BC
:1014100005E0042203E0012201E0022200BF00BF38
:101420000B78052B02D00B78042B10D143784BB1ED
:10143000032B09D0052B03D0062B07D1072205E08B
:10144000042203E0012201E0022200BF00BF0B786A
:10145000072B02D00B78062B11D14378012B09D032
:10146000022B09D0042B03D0072B07D1062205E05D
:10147000052203E0002201E0032200BF00BF4A7002
:1014800082784B78072B02D04B78062B11D18378CA
:10149000012B09D0022B09D0042B03D0072B07D135
:1014A000062205E0052203E0002201E0032200BF3E
:1014B00000BF4B78052B02D04B78042B10D18378DA
:1014C0004BB1032B09D0052B03D0062B07D10722E4
:1014D00005E0042203E0012201E0022200BF00BF78
:1014E0004B78012B01D04B788BB9837843B1032B18
:1014F00008D0052B02D0062B08D105E0072205E015
:10150000042203E0012201E0022200BF00BF4B7869
:10151000032B02D04B78022B11D18378012B09D0F9
:10152000022B09D0042B03D0072B07D1052205E09D
:10153000002203E0032201E0062200BF00BF8A7000
:10154000C2788B78072B02D08B78062B11D1C37809
:10155000012B09D0022B09D0042B03D0072B07D174
:10156000062205E0052203E0002201E0032200BF7D
:1015700000BF8B78052B02D08B78042B10D1C37859
:101580004BB1032B09D0052B03D0062B07D1072223
:1015900005E0042203E0012201E0022200BF00BFB7
:1015A0008B78012B01D08B788BB9C37843B1032B97
:1015B00008D0052B02D0062B08D105E0072205E054
:1015C000042203E0012201E0022200BF00BF8B7869
:1015D000032B02D08B78022B11D1C378012B09D0B9
:1015E000022B09D0042B03D0072B07D1052205E0DD
:1015F000002203E0032201E0062200BF00BFCA7000
:101600000279CB78072B02D0CB78062B11D1037946
:10161000012B09D0022B09D0042B03D0072B07D1B3
:10162000062205E0052203E0002201E0032200BFBC
:1016300000BFCB78052B02D0CB78042B10D10379D7
:101640004BB1032B09D0052B03D0062B07D1072262
:1016500005E0042203E0012201E0022200BF00BFF6
:10166000CB78012B01D0CB788BB9037943B1032B15
:1016700008D0052B02D0062B08D105E0072205E093
:10168000042203E0012201E0022200BF00BFCB7868
:10169000032B02D0CB78022B11D10379012B09D077
:1016A000022B09D0042B03D0072B07D1052205E01C
:1016B000002203E0032201E0062200BF00BF0A71FE
:1016C00042790B79062B02D00B79022B11D1437989
:1016D000012B09D0022B09D0042B03D0072B07D1F3
:1016E000062205E0052203E0002201E0032200BFFC
:1016F00000BF0B79072B02D00B79052B10D1437952
:101700004BB1032B09D0052B03D0062B07D10722A1
:1017100005E0042203E0012201E0022200BF00BF35
:101720000B7913B10B79042B19D1437983B1032BB6
:1017300010D0052B0AD0062B10D10DE0F0080020A8
:10174000320000203100002030000020072205E098
:10175000042203E0012201E0022200BF00BF0B7956
:10176000012B02D00B79032B11D14379012B09D026
:10177000022B09D0042B03D0072B07D1052205E04B
:10178000002203E0032201E0062200BF00BF4A71ED
:1017900010BD000010B501460020334A12780A2A15
:1017A00005DA314A1278521C2F4B1A7059E02F4A31
:1017B0001288914203DD2D4A12888A1A02E02B4AD0
:1017C0001288521A012A12D10020294A1288B2F531
:1017D000806F09DA264A13881288521C244C228012
:1017E000244A22F8131002E00022214B1A801F4ADB
:1017F0001288914203DD1D4A12888A1A02E01B4AB0
:101800001288521A012A11DD81B1A1F57062FF3AE6
:101810000CD001200122184B1A70144A1288174B61
:101820001A801A4651804FF6FF729A800F4A12882A
:101830008A4211D1104A12789AB10120104A1278C6
:10184000052A03DB01220F4BDA700AE00C4A1278FA
:10185000521C0B4B1A7004E00022094B1A70064B05
:101860001A70024A118010BD0C0000200E000020EA
:101870001000002048000020140000201600002066
:10188000150000204808002010B503460A46002134
:10189000002000BF06E00D4C645C9C4200D103E0D8
:1018A0004C1CE1B20829F6DB00BF094CA45C8C4259
:1018B00004DC074CA45C0C1BE0B205E0044CA45C07
:1018C000C4F108040C44E0B210BD00001C0000206C
:1018D0002A0000201EB5014648794FF6FF7303EA3F
:1018E0004020ADF80A000879C31700EB93739B10F2
:1018F000A0EB83034FF6FF7404EAC313ADF808307E
:10190000C878C31700EB93739B10A0EB830304EA22
:101910004313ADF806308878C31700EB93739B1020
:10192000A0EB830304EAC303ADF804304878C3177F
:1019300000EB93739B10A0EB830304EA4303ADF821
:1019400002300878C31700EB93739B10A0EB83035E
:10195000C3F34F03ADF80030BDF80000BDF802300E
:101960001844BDF804301844BDF806301844BDF8DA
:1019700008301844BDF80A30184482B210461EBD23
:101980001EB5014648794FF6FF7303EA8020ADF893
:101990000A000879C31700EB93739B10A0EB830335
:1019A0004FF6FF7404EA0323ADF80830C878C31774
:1019B00000EB93739B10A0EB830304EA8313ADF851
:1019C00006308878C31700EB93739B10A0EB83035A
:1019D00004EA0313ADF804304878C31700EB93739F
:1019E0009B10A0EB830304EA8303ADF80230087870
:1019F000C31700EB93739B10A0EB83039BB2ADF86E
:101A00000030BDF80000BDF802301844BDF80430C5
:101A10001844BDF806301844BDF808301844BDF825
:101A20000A30184482B210461EBD000010B50449A9
:101A3000A1F10C00FFF786FC00F038F810BD0000A3
:101A40006E08002010B5FFF7BFFB1549154A127844
:101A5000885415480078FFF7D5FB134800781149E2
:101A6000087011480078401CC0B20F490870062861
:101A700014DB002008700A4820388088401C084980
:101A80002039888001204870002405E00448015D69
:101A9000801F0155601CC4B2062CF7DB10BD00008E
:101AA000680800200B0000200A00002070B5002408
:101AB0000AE01349085D2146FFF7E6FEC1B210486F
:101AC000801D0155601CC4B2062CF2DB0C48801D41
:101AD000FFF700FF05460A48801DFFF751FF064645
:101AE000074926390889FFF755FE18B904482638F2
:101AF00005814681012002492639887070BD0000A9
:101B00006E08002000BFFEE770B50346012419E00F
:101B1000002212E051F82260501C51F82000864249
:101B200009D951F82250501C51F8200041F82200E8
:101B3000501C41F82050501CC2B2181B9042E9DCE6
:101B4000601CC4B29C42E3DB581051F8200070BD09
:101B5000704710B500214FF0006000F049F84FF4D5
:101B6000407000F03BF810BD70B5002100230F223B
:101B7000C4780CB3164C246804F4E064C4F5E06443
:101B8000210AC1F10403CA40447804FA03F18478BD
:101B90001440214309010F4C0678A155047804F044
:101BA0001F050124AC4005786D114FF0E02606EBCF
:101BB0008505C5F8004109E0047804F01F050124FB
:101BC000AC40054D0678761145F8264070BD000002
:101BD0000CED00E000E400E080E100E00249014398
:101BE000024A1160704700000000FA050CED00E0A9
:101BF000024A0A400243024B1A60704780FFFF1FEF
:101C000008ED00E07047000001460020034A5068DC
:101C100020F440400843506070470000001002402C
:101C200029B1064A52690243044B5A6104E0034A4F
:101C300052698243014B5A61704700000010024014
:101C400029B1064AD2690243044BDA6104E0034A2F
:101C5000D2698243014BDA617047000000100240F4
:101C600029B1064A12690243044B1A6104E0034A8F
:101C700012698243014B1A61704700000010024054
:101C800029B1064A92690243044B9A6104E0034A6F
:101C900092698243014B9A61704700000010024034
:101CA00010B5002400F034F84FF4803000F088F8CC
:101CB00000F0E4F80446012C28D11020FFF77AF850
:101CC0000220FFF785F8002000F06EF84FF4A060C6
:101CD00000F0A8F8002000F099F8E003FFF794FF67
:101CE0004FF4E011200400F0AFF8012000F0A6F856
:101CF00000BF392000F032F80028FAD0022000F0AE
:101D0000B1F800BF00F048F80828FBD110BD000072
:101D10000F48006840F001000D490860084640681F
:101D20000C4908400A494860084600680A490840CA
:101D3000074908600846006820F4802008600846CB
:101D4000406820F4FE0048604FF41F008860704730
:101D5000001002400000FFF8FFFFF6FE10B501463C
:101D60000022002300204A11012A02D1094C2368D5
:101D700006E0022A02D1074C236A01E0054C636A9F
:101D800001F01F02012494401C4201D0012000E018
:101D9000002010BD001002400248406800F00C0016
:101DA000704700000010024001460020034A5068BE
:101DB00020F0F0000843506070470000001002401F
:101DC0001149096821F480310F4A116011460968F0
:101DD00021F480211160B0F5803F03D0B0F5802F51
:101DE0000ED106E00849096841F48031064A1160C5
:101DF00007E00549096841F4A021034A116000E0A9
:101E000000BF00BF704700000010024001460020E4
:101E1000034A506820F4E0600843506070470000B7
:101E20000010024001460020034A506820F4605030
:101E300040EAC10050607047001002400149086646
:101E4000704700000000424202460020044B5868E0
:101E500020F47C1042EA01031843014B586070479C
:101E60000010024001460020034A506820F00300A1
:101E700008435060704700000010024070B5002415
:101E80000025002600BF3120FFF768FF0646641CCE
:101E9000B4F5A06F01D0002EF5D03120FFF75EFF22
:101EA00008B1012500E00025284670BD00B591B0BD
:101EB00001210803FFF7E4FE01210846FFF7B0FE09
:101EC0000020ADF830004FF48270ADF832000020F1
:101ED000ADF834000220ADF836000020ADF838002F
:101EE0004FF40070ADF83A003820ADF83C00002007
:101EF000ADF83E000720ADF840000CA91F4800F0E7
:101F0000E5F801211D4800F092F8012202211B484A
:101F100000F0A6F823208DF82C0001208DF82D006C
:101F200000208DF82E0001208DF82F000BA8FFF760
:101F30001BFE6021114800F086F8012260210F4845
:101F400000F0B1F80D480C3000900D4801900A20C7
:101F50000390102002900020049080200590002023
:101F60000690079008904FF40050099000200A90C6
:101F700069460448FEF752FE11B000BD0030014032
:101F8000000000203000024010B514480078F0B97D
:101F900013484078D8B10020114948700F49886231
:101FA00001200870887010210E48FFF7CDF801203D
:101FB00000F030F800210C48FEF724FE0A200A4900
:101FC0003039486301210848FEF71CFE04E003484D
:101FD000806A401C0149886210BD0000F0080020A2
:101FE00048080020000801403000024010B5602180
:101FF000074800F03EF850B16021054800F026F88F
:10200000034800F060F8C4B2204600F0EDF810BDBF
:102010000030014008E0642100BF0A00A1F1010383
:1020200099B2FAD1421E90B20028F4D1704721B182
:10203000028842F04002028004E002884FF6BF733B
:102040001A4002807047CA430281704710B50022CF
:1020500001F00F040123A3409AB2D343038110BDC2
:102060001AB183880B43838002E083888B4383808B
:102070007047F0B50246002000240023002501F03F
:102080000F070126BE40B4B20B1101269E40B3B229
:10209000968806EA03051689264202D00DB1012072
:1020A00000E00020F0BD30B5002400230C11012514
:1020B000A540ABB21AB185881D43858002E08588B2
:1020C0009D43858030BD01468889704710B5002248
:1020D000028802F441520B884C8823438C882343A6
:1020E000CC8823430C8923434C8923438C89234385
:1020F000CC8923431A430280838B4FF2FF74234021
:1021000083830B8A038210BD70B501460020002234
:102110000024334D2D780E78B54205D0304D6D78C2
:102120004E78B54200D001202D4DAD798E79B54263
:102130000FD02B4DED79CE79B5420AD0284D2D7AAE
:102140000E7AB54205D0264D6D7A4E7AB54200D052
:102150000120002843D1CD788E7845EA06224D79BA
:102160000E7945EA062482EA0405A5F57F46FF3E7E
:102170002FD102F00303012B02D0022B21D118E052
:102180001509184EF5823546ED8AB5F5006F01DB6D
:10219000012500E00025134E35760125F5733546FF
:1021A000AD8D6D1CB58535466D8B25F42045758349
:1021B0000EE00C4D6A836D8B25F42045094E758326
:1021C00006E0084D6D8B45F40055064E758300BF43
:1021D00005E0044D6D8B45F40045024E758370BDDE
:1021E0003B000020F008002010B50446104880781D
:1021F00018B100200E498870C8700D48C0780A28B0
:1022000015DA0B48C178401D4454401FC078401C6B
:10221000C0B20749C870092809DB481DFFF774FFE1
:1022200000200349087010210248FEF78FFF10BDFF
:10223000F008002000080140704710B500F002F8D7
:1022400010BD0000002100202E4A126842F48032A6
:102250002C4B1A6000BF2B4A126802F40030491C54
:1022600010B9B1F5A06FF6D1264A126812F4003FFA
:1022700001D0012000E00020012842D1224A12684A
:1022800042F01002204B1A601A46126822F0030234
:102290001A601A46126842F002021A60194A52681D
:1022A000184B5A601A4652685A601A46526842F4ED
:1022B00080625A601A46526822F47C125A601A46AA
:1022C000526842F4E8125A601A46126842F080726C
:1022D0001A6000BF0B4A126812F0007FFAD0094A58
:1022E000526822F00302074B5A601A46526842F0C5
:1022F00002025A6000BF034A526802F00C02082A28
:10230000F9D17047001002400020024070470000E1
:1023100010B51348006840F00100114908600846F4
:102320004068104908400E494860084600680E4958
:1023300008400B4908600846006820F480200860C7
:102340000846406820F4FE0048604FF41F00886093
:10235000FFF773FF4FF000600449086010BD0000F4
:10236000001002400000FFF8FFFFF6FE08ED00E05D
:102370001FB501210846FFF763FC4FF0804000F0D5
:1023800039F90020ADF80A0042F21070ADF80800EB
:1023900041F61F40ADF804000020ADF8060001A989
:1023A0004FF0804000F02CF91C208DF800000F2029
:1023B0008DF8010000208DF8020001208DF8030047
:1023C0006846FFF7D1FB0121880700F0E7F80021FC
:1023D0004FF0804000F0D6F801221146900700F03F
:1023E00000F90121880700F0DFF81FBD10B50121B9
:1023F000880700F0E5F828B30121880700F0D1F83C
:10240000114880881049C880002088800F48808D3E
:102410000E49C885002088850D48006C0C49496824
:10242000884205D90A48006C09494968401A04E005
:10243000074840680649096C401A0549486408463F
:102440004068086410BD000048080020F008002023
:10245000800800201FB501210220FFF7F1FB1A4878
:1024600000F0C8F80020ADF80A0040F22620ADF8D0
:1024700008004720ADF804000020ADF8060001A9CF
:10248000114800F0BDF81D208DF8000000208DF8E7
:1024900001008DF8020001208DF803006846FFF767
:1024A00063FB0121084800F079F80021064800F09C
:1024B00069F801221146044800F093F8012102480E
:1024C00000F072F81FBD00000004004010B50121AB
:1024D000054800F075F828B10121034800F061F8C3
:1024E000FFF7B0FA10BD0000000400401FB5012145
:1024F0000420FFF7A5FB1A4800F07CF80020ADF897
:102500000A004FF47A70ADF808004720ADF80400D7
:102510000020ADF8060001A9114800F071F81E2056
:102520008DF800000F208DF8010000208DF80200CA
:1025300001208DF803006846FFF716FB01210848CB
:1025400000F02CF80021064800F01CF8012211468A
:10255000034800F046F80121014800F025F81FBDAE
:102560000008004010B50121054800F029F828B105
:102570000121034800F015F800F094F810BD0000A8
:102580000008004021B1028842F08002028004E08D
:1025900002884FF67F731A4002807047CA43028256
:1025A0007047CA430282704721B1028842F001029B
:1025B000028004E002884FF6FE731A4002807047E2
:1025C00030B50246002000230024158A05EA0103E5
:1025D000958905EA010413B10CB1012000E0002047
:1025E00030BD1AB183890B43838102E083898B4319
:1025F0008381704701894FF6F8721140018170475D
:10260000002202881D4B98420ED01D4B98420BD0E1
:10261000B0F1804F08D01B4B984205D01A4B98421E
:1026200002D01A4B984204D14FF68F731A404B8850
:102630001A43174B984207D0164B984204D04FF6D6
:10264000FF431A40CB881A4302808B8883850B880E
:1026500003850A4B98420BD0094B984208D00E4B89
:10266000984205D00D4B984202D00D4B984201D1B3
:102670000B7A03860123838270470000002C0140FF
:10268000003401400004004000080040000C0040FD
:102690000010004000140040004001400044014090
:1026A000004801400B48007880B10A48016A006A7E
:1026B000401C084A106264290BD9002011460862A8
:1026C00008700846406A401C486202E00020014948
:1026D00008627047F00800200348408B18B9024890
:1026E000C08A014988837047F008002010B5012195
:1026F0000448FDF75BFE18B101210248FDF762FDB9
:1027000010BD00000064004000B585B000BF04218A
:102710001D48FEF719FD20211C48FEF715FD00BFDE
:1027200002211B48FDF742FE60B302211848FDF765
:1027300049FD6A4600211648FDF7E2FF9DF80900B1
:1027400002280BD113480078E0B901201149087024
:10275000019848609DF80A00087213E09DF808008F
:1027600010B104280CD100E00BE001986FF31400C5
:10277000B0F13A6F03D10DF10B00FEF763F900E001
:1027800000BF00BF05B000BD00080140000C0140C3
:1027900000640040C808002000BFFEE702E008C84F
:1027A000121F08C1002AFAD170477047002001E0CB
:1027B00001C1121F002AFBD170470000FFF770FA19
:1027C000FFF7C7F9FEF714FBFDF714FFFFF76EFBE9
:1027D000FFF7CEFDFFF73EFEFFF788FEFEF7C2FCD7
:1027E000FEF779FCFDF76CFF10212A48FEF7ACFCE0
:1027F00020212848FEF7A8FC01202749887047E0DF
:102800002648806A642804D22348C07808B9FEF7B5
:10281000EBFA2248C07B10B1FFF708F901E0FFF79F
:10282000B3FB0A20FEF719FA1B48807870B300202A
:10283000194988701949C8730A46D18A164A1089FD
:10284000FEF794F9154AD18A134A1089FEF7A2F9C6
:1028500000BF02211248FEF76EFC20B10221104891
:10286000FEF772FC03E002210D48FEF76FFC102119
:102870000848FEF760FC20B110210648FEF764FC12
:1028800003E010210348FEF761FC00BFFEF744F8A7
:10289000B6E70000000C014048080020F0080020C6
:1028A00000080140C4280008000000204800000083
:1028B0009C2700080C29000848000020D80C0000C4
:1028C000AC270008550000000000000000000000D8
:1028D00000000000000000000000000000000000F8
:1028E00001030206070504000303030501060101B5
:1028F000010500030000000000000000000000AA25
:0C290000FF00000000FFFFFFFF000000D0
:04000005080000ED02
:00000001FF
